:020000040800F2
:10000000002800208D1500081D1500082315000884
:10001000291500082F1500083515000800000000FC
:100020000000000000000000000000003B15000878
:100030004715000800000000531500085F15000870
:10004000D5150008D5150008D5150008D5150008E8
:10005000D5150008D5150008D5150008D5150008D8
:10006000D5150008D5150008D5150008D5150008C8
:10007000D5150008D5150008D5150008D5150008B8
:10008000D5150008D5150008D5150008D5150008A8
:10009000D5150008D5150008D5150008D515000898
:1000A000D5150008D5150008D5150008D515000888
:1000B0006D150008D515000800000000D5150008D2
:1000C000D51500080000000000000000D51500084C
:1000D00000000000D5150008D5150008000000003C
:1000E000D5150008D5150008D5150008000000003A
:1000F0000000000000000000000000000000000000
:0C01000000000000000000005FF808F1A3
:10010C0010B5054C237833B9044B13B10448AFF345
:10011C0000800123237010BD280000200000000087
:10012C00D42B000808B5034B1BB103490348AFF3AC
:10013C00008008BD000000002C000020D42B00081B
:10014C0080B582B000AF884B1B68012B40F0078153
:10015C004FF48061854801F023FD0346FB71844B0D
:10016C001B78FA799A4203D0824B00221A6019E06C
:10017C00814B1B680A2B07DD7E4B1A687E4B1B6874
:10018C0013447C4A13600DE07B4B1B680A2292FBE4
:10019C00F3F3794A126802FB03F2764B1B681344A3
:1001AC00744A1360734B1B681D2B0FDDFB79012BFD
:1001BC0009D1724B1B78002B05D16E4B00221A60B3
:1001CC006F4B01221A606D4AFB791370684AFB79F8
:1001DC0013704FF40061654801F0E2FC0346BB71FB
:1001EC00684B1B78BA799A4203D0674B00221A608D
:1001FC0019E0614B1B680A2B07DD634B1A685E4BD9
:10020C001B681344604A13600DE05B4B1B680A22A9
:10021C0092FBF3F3584A126802FB03F25A4B1B6829
:10022C001344594A1360584B1B681D2B0FDDBB79C7
:10023C00012B09D1554B1B78002B05D1524B0022B9
:10024C001A60534B01221A60504ABB7913704D4A05
:10025C00BB7913704FF48051444801F0A1FC034664
:10026C007B714C4B1B787A799A4203D04A4B002213
:10027C001A6019E0404B1B680A2B07DD464B1A68C5
:10028C003D4B1B681344444A13600DE03A4B1B680A
:10029C000A2292FBF3F3384A126802FB03F23E4B3C
:1002AC001B6813443C4A13603B4B1B681D2B0FDD32
:1002BC007B79012B09D1394B1B78002B05D1364B9F
:1002CC0000221A60364B01221A60344A7B79137073
:1002DC00304A7B7913704FF40051244801F060FCD4
:1002EC0003463B712F4B1B787A799A4203D02E4BE5
:1002FC0000221A6019E0204B1B680A2B07DD2A4BE1
:10030C001A681D4B1B681344274A13600DE01A4BE7
:10031C001B680A2292FBF3F3174A126802FB03F2E2
:10032C00214B1B681344204A13601F4B1B681D2B69
:10033C000FDD3B79012B09D11C4B1B78002B05D110
:10034C00194B00221A601A4B01221A60174A3B798A
:10035C001370144A3B7913700A2000F0E3FF00BFBE
:10036C000837BD4680BD00BF9C000020000C01403A
:10037C000000002044000020180000200100002094
:10038C0048000020020000204C0000200300002048
:10039C005000002004000020540000200500002024
:1003AC0058000020060000205C0000200700002000
:1003BC006000002080B500AF01F008F900F08EF865
:1003CC0000F014F900F0C6F83B4802F045F83B4B3E
:1003DC001B68184600F0FCFE384B1B68384A82FB41
:1003EC0003129211DB17D31A364A1360354B1B6874
:1003FC00354A82FB03129210DB17D31A334A13606F
:10040C00304B1968304B83FB01239A10CB17D21A4F
:10041C0013469B0013445B00CA1A2C4B5A602C4B9E
:10042C001B68184600F0F6FE294B1B68244A82FB19
:10043C0003129211DB17D31A264A1360254B1B6843
:10044C00214A82FB03129210DB17D31A1F4A9360C6
:10045C00204B19681C4B83FB01239A10CB17D21A23
:10046C0013469B0013445B00CA1A184BDA604FF416
:10047C007A7000F0F1FEFA2000F010FF4FF47A7061
:10048C0000F02EFF0A2000F04DFF134B1B68002BD1
:10049C0001D100F017F900F0DFF900F083FA00F059
:1004AC0001FBFFF74DFE00F0F3FB00F0F3FC00F056
:1004BC005FFD00F07DFDE8E7BC0000200C00002093
:1004CC00D34D6210B800002067666666A800002055
:1004DC0014000020A40000206C00002080B590B017
:1004EC0000AF07F1180328220021184602F064FB24
:1004FC003B1D00221A605A609A60DA601A6102236E
:10050C00BB610123BB621023FB6200237B6307F1F9
:10051C001803184601F074FB0346002B01D000F0C1
:10052C0051FE0F237B600023BB600023FB60002384
:10053C003B6100237B613B1D0021184601F0E0FD6F
:10054C000346002B01D000F03DFE00BF4037BD46F6
:10055C0080BD000080B586B000AF07F10803002213
:10056C001A605A609A60DA603B4600221A605A6040
:10057C001D4B4FF080421A601B4B41F63F725A6084
:10058C00194B00229A60184B0922DA60164B002294
:10059C001A61154B00229A61134801F00DFF0346B6
:1005AC00002B01D000F00EFE4FF48053BB6007F11E
:1005BC00080319460C4802F08BF80346002B01D0B7
:1005CC0000F000FE00233B6000237B603B46194695
:1005DC00054802F063FA0346002B01D000F0F2FD4F
:1005EC0000BF1837BD4680BDBC00002080B586B06A
:1005FC0000AF07F1080300221A605A609A60DA60B3
:10060C00284B9B69274A43F004039361254B9B6954
:10061C0003F004037B607B68224B9B69214A43F007
:10062C00080393611F4B9B6903F008033B603B6815
:10063C00002240F2FE711C4801F0C9FA00227F2111
:10064C001A4801F0C4FA40F2FE73BB600123FB6050
:10065C0000233B6102237B6107F108031946124812
:10066C0001F024F97F23BB600123FB6000233B6175
:10067C0002237B6107F1080319460C4801F016F9B7
:10068C004FF47053BB600023FB6001233B6107F107
:10069C0008031946054801F009F900BF1837BD4693
:1006AC0080BD00BF0010024000080140000C01405A
:1006BC0080B582B000AF786000F056FE00BF0837FE
:1006CC00BD4680BD80B500AF594B1B68012B53D183
:1006DC00584B1B78022B34D0022B49DC002B02D058
:1006EC00012B17D044E0534B02221A70524B1B685B
:1006FC00184600F06DFD504B1B68504A82FB0312EC
:10070C009211DB17D31A4E4A13604FF47A7000F033
:10071C00A3FD32E0474B00221A704A4B1B68184667
:10072C0000F056FD474B1B68444A82FB03129211A2
:10073C00DB17D31A424A13604FF47A7000F08CFD29
:10074C001BE03C4B01221A703F4B1B68184600F013
:10075C003FFD3D4B1B68394A82FB03129211DB179C
:10076C00D31A374A13604FF47A7000F075FD04E029
:10077C00304B00221A7000E000BF344B1B68012B79
:10078C0053D1334B1B78022B34D0022B49DC002B7A
:10079C0002D0012B17D044E02D4B02221A70264BAD
:1007AC001B68184600F036FD234B1B68234A82FB5E
:1007BC0003129211DB17D31A264A13604FF47A7086
:1007CC0000F08EFD32E0224B00221A701D4B1B688C
:1007DC00184600F01FFD1B4B1B68184A82FB0312C6
:1007EC009211DB17D31A1B4A13604FF47A7000F086
:1007FC0077FD1BE0164B01221A70134B1B68184631
:10080C0000F008FD104B1B680C4A82FB031292117E
:10081C00DB17D31A0F4A13604FF47A7000F060FDA7
:10082C0004E00B4B00221A7000E000BF00BF80BD3B
:10083C00740000206400002014000020D34D6210CE
:10084C00B80000200C000020100000207C000020CC
:10085C0008000020A400002080B500AF4D4B1B68A1
:10086C00002B64D14C4B1B78022B1CD0022B25DCAB
:10087C00002B02D0012B0BD020E000222021474876
:10088C0001F0A5F90122C021444801F0A0F918E0BB
:10089C0000224021414801F09AF90122A0213F4851
:1008AC0001F095F90DE0002280213C4801F08FF910
:1008BC0001226021394801F08AF902E0364B00220E
:1008CC001A70374B1B78022B20D0022B2BDC002B01
:1008DC0002D0012B0DD026E000224FF480712F485E
:1008EC0001F075F901224FF4C0612C4801F06FF949
:1008FC001EE000224FF40071284801F068F9012233
:10090C004FF4A061254801F062F911E000224FF488
:10091C008061224801F05BF901224FF440711F48BD
:10092C0001F055F904E01E4B00221A7000E000BFE4
:10093C00184B1B68012B0BD100224FF490711748F8
:10094C0001F045F901224FF4D861144801F03FF948
:10095C00104B1B68022B0BD100224FF410710F4867
:10096C0001F035F901224FF4B4610C4801F02FF974
:10097C00084B1B68032B0BD100224FF490610748E6
:10098C0001F025F901224FF45871044801F01FF9C8
:10099C0000BF80BD6C0000206400002000080140F6
:1009AC000800002080B500AF374B1B68002B4BD1E3
:1009BC00364B1B68364A82FB03129210DB17D31A94
:1009CC00344A1360314B1968314B83FB01239A1065
:1009DC00CB17D21A13469B0013445B00CA1A2D4B3B
:1009EC005A602D4B1B682A4A82FB03129210DB17AC
:1009FC00D31A284A9360284B1968254B83FB012393
:100A0C009A10CB17D21A13469B0013445B00CA1AD8
:100A1C00204BDA60214B1B68012B08D11B4B1B6848
:100A2C00013B1A4A13604FF47A7000F015FC1C4B12
:100A3C001B68012B08D1184B1B68013B164A13602D
:100A4C004FF47A7000F04CFC0F4B1B68012B05D156
:100A5C00104B00221A600F4B01225A600A4B1B6884
:100A6C00022B05D10B4B00221A600A4B02225A6052
:100A7C00054B1B68032B05D1064B00221A60054B56
:100A8C0003225A6000BF80BD6C000020B80000201B
:100A9C0067666666A8000020A40000208400002081
:100AAC009400002080B500AF2B4B1B68012B0DD19F
:100ABC002A4B1B680133042293FBF2F102FB01F277
:100ACC009B1A264A1360FA2000F0E8FB234B1B68A4
:100ADC00032B37D801A252F823F000BFF90A000803
:100AEC000F0B0008250B00083B0B0008002202210D
:100AFC001B4801F06CF801221C21194801F067F821
:100B0C0020E000220421164801F061F801221A218C
:100B1C00134801F05CF815E000220821104801F0A0
:100B2C0056F8012216210E4801F051F80AE0002275
:100B3C0010210B4801F04BF801220E21084801F05E
:100B4C0046F800BF054B1B68064A52F8233018467E
:100B5C0000F00AF800BF80BD8C0000206800002067
:100B6C0000080140A800002080B582B000AF78607A
:100B7C007B68092B7FD801A252F823F0B10B000837
:100B8C00C70B0008DD0B0008F30B0008090C00086C
:100B9C001F0C0008350C00084B0C0008610C0008F9
:100BAC006D0C000800223F21384801F010F801229A
:100BBC004021364801F00BF863E00022062133484F
:100BCC0001F005F801227921304801F000F858E0D5
:100BDC0000225B212D4800F0FAFF012224212B4832
:100BEC0000F0F5FF4DE000224F21284800F0EFFF08
:100BFC0001223021254800F0EAFF42E00022662164
:100C0C00224800F0E4FF01221921204800F0DFFF08
:100C1C0037E000226D211D4800F0D9FF012212217E
:100C2C001A4800F0D4FF2CE000227D21174800F078
:100C3C00CEFF01220221154800F0C9FF21E000225D
:100C4C000721124800F0C3FF012278210F4800F061
:100C5C00BEFF16E000227F210C4800F0B8FF10E028
:100C6C0000226F21094800F0B2FF01221021074831
:100C7C0000F0ADFF05E001227F21044800F0A7FF42
:100C8C0000BF00BF0837BD4680BD00BF000C01404F
:100C9C0080B500AF714B1B68012B40F0DD80704BB1
:100CAC0000221A706F4B1B6801335A4203F0030386
:100CBC0002F0030258BF53426A4A1360694B1B6827
:100CCC00002B5DD1684B1B68184600F081FA664B0F
:100CDC001B68664A82FB03129211DB17D31A644A13
:100CEC001360634B1B68634A82FB03129210DB1781
:100CFC00D31A614A13605E4B19685E4B83FB012368
:100D0C009A10CB17D21A13469B0013445B00CA1AD5
:100D1C00594B5A60594B1B68184600F07BFA574BDD
:100D2C001B68524A82FB03129211DB17D31A544AE6
:100D3C001360534B1B684F4A82FB03129210DB1754
:100D4C00D31A4D4A93604E4B19684A4B83FB0123CF
:100D5C009A10CB17D21A13469B0013445B00CA1A85
:100D6C00454BDA604FF47A7000F076FA4FF47A70F3
:100D7C0000F0B6FA434B00221A70434B02221A7051
:100D8C00384B1B68012B1ED1374B1B683F4A82FB2B
:100D9C0003121213DB17D31A374A9360324B1B68BA
:100DAC00324A82FB03129211DB17D11A314B83FBAF
:100DBC0001239A10CB17D21A13469B0013445B00E5
:100DCC00CA1A2D4BDA60274B1B68022B1ED1304BF5
:100DDC001B682E4A82FB03121213DB17D31A264A06
:100DEC0093602B4B1B68214A82FB03129211DB1779
:100DFC00D11A204B83FB01239A10CB17D21A13461E
:100E0C009B0013445B00CA1A1B4BDA60154B1B6822
:100E1C00032B1ED1194B1B681C4A82FB03121213A5
:100E2C00DB17D31A144A9360144B1B680F4A82FBCE
:100E3C0003129211DB17D11A0E4B83FB01239A106C
:100E4C00CB17D21A13469B0013445B00CA1A0A4BE9
:100E5C00DA60024B00221A6000BF80BD48000020FF
:100E6C00700000206C0000200C000020D34D62109C
:100E7C00B800002067666666A800002014000020F9
:100E8C00A40000206400002008000020AD8BDB686B
:100E9C001000002080B400AF304B1B68012B58D1E0
:100EAC002F4B1B68002B51D02E4B1B78002B0FD1D6
:100EBC002D4BDB68591C2D4B83FB01239A10CB1750
:100ECC00D21A13469B0013445B00CA1A264BDA60F5
:100EDC00244B1B78012B0FD1234B9B68591C234BA4
:100EEC0083FB01239A10CB17D21A13469B00134491
:100EFC005B00CA1A1C4B9A60194B1B68012B0ED154
:100F0C00194B9A6813469B0013445B001A46164B08
:100F1C00DB681344012B02DC134B0222DA60104B0A
:100F2C001B68022B03D00E4B1B68032B0ED10E4BF0
:100F3C009A6813469B0013445B001A460A4BDB6805
:100F4C001344002B02DC084B0122DA60034B002215
:100F5C001A6000BFBD4680BC704700BF5000002027
:100F6C006C00002070000020A800002067666666F8
:100F7C0080B400AF0C4B1B68012B11D10B4B1B78B1
:100F8C00002B02D0012B04D007E0084B01221A7071
:100F9C0003E0064B00221A7000BF034B00221A60BC
:100FAC0000BFBD4680BC7047580000207000002078
:100FBC0080B400AF7A4B1B68012B40F0ED80794B6D
:100FCC001B68012B3FD1784B9A6813469B00134446
:100FDC005B001A46744BDB6813444FF47A7202FBC5
:100FEC0003F3724A1360724B1A68704B1B689A4277
:100FFC0009DB6E4B1B68A3F57A736D4A13606D4B5E
:10100C004FF47A721A606B4B1A68684B1B689A42E1
:10101C0009DB664B1B68A3F57A73664A1360644B55
:10102C004FF47A721A60634B1A68614B1B681A444E
:10103C005E4B1B689A4206D05C4B1A685C4B1B6873
:10104C00D31A5C4A1360574B1B68022B4ED1564B7C
:10105C009A6813469B0013445B001A46524BDB689C
:10106C0013444FF47A7202FB03F3514A1360504B52
:10107C001A684E4B1B689A4209DB4C4B1B68A3F554
:10108C007A734B4A13604B4B4FF47A721A60494B8C
:10109C001A68474B1B681A44444B1B689A4206D08B
:1010AC00424B1A68424B1B68D31A424A1360404B9E
:1010BC001B68414A82FB03121213DB17D31A3A4AFC
:1010CC0093603B4B1B683D4A82FB03129211DB176A
:1010DC00D11A3B4B83FB01239A10CB17D21A134620
:1010EC009B0013445B00CA1A2F4BDA602D4B1B6814
:1010FC00032B4ED12C4B9A6813469B0013445B0078
:10110C001A46294BDB6813444FF47A7202FB03F343
:10111C00284A1360274B1A68244B1B689A4209DB38
:10112C00224B1B68A3F57A73224A1360204B4FF4B1
:10113C007A721A601F4B1A681D4B1B681A441B4BA2
:10114C001B689A4206D0194B1A681A4B1B68D31AA3
:10115C00174A1360174B1B68174A82FB03121213B2
:10116C00DB17D31A104A9360124B1B68134A82FB8D
:10117C0003129211DB17D11A114B83FB01239A1026
:10118C00CB17D21A13469B0013445B00CA1A064BAA
:10119C00DA60034B00221A6000BFBD4680BC70476A
:1011AC00600000206C000020A80000200C00002033
:1011BC001000002014000020AD8BDB68D34D6210B2
:1011CC006766666680B400AF72B600BFFEE70000CB
:1011DC0080B483B000AF78600B4B00221A600B4BCD
:1011EC001B687A689A4207DB084B1B687A6892FB8B
:1011FC00F3F3074A136002E0054B01221A6000BFAB
:10120C000C37BD4680BC70477400002018000020CD
:10121C007800002080B483B000AF78600B4B0022C4
:10122C001A600B4B1B687A689A4207DB084B1B68E9
:10123C007A6892FBF3F3074A136002E0054B012234
:10124C001A6000BF0C37BD4680BC70477C00002084
:10125C00180000208000002080B483B000AF7860BC
:10126C000B4B00221A600B4B1B687A689A4207DB07
:10127C00084B1B687A6892FBF3F3074A136002E091
:10128C00054B01221A6000BF0C37BD4680BC70476D
:10129C0084000020180000208800002080B483B057
:1012AC0000AF78600B4B00221A600B4B1B687A68FE
:1012BC009A4207DB084B1B687A6892FBF3F3074AE8
:1012CC00136002E0054B01221A6000BF0C37BD46CB
:1012DC0080BC70478C00002018000020900000207B
:1012EC0080B483B000AF78600B4B00221A600B4BBC
:1012FC001B687A689A4207DB084B1B687A6892FB7A
:10130C00F3F3074A136002E0054B01221A6000BF99
:10131C000C37BD4680BC704794000020180000209C
:10132C009800002080B483B000AF78600B4B002293
:10133C001A600B4B1B687A689A4207DB084B1B68D8
:10134C007A6892FBF3F3074A136002E0054B012223
:10135C001A6000BF0C37BD4680BC70479C00002053
:10136C0018000020A000002080B400AF314B1B6897
:10137C00002B0BDD2F4B1B68013B2E4A13602D4BB2
:10138C001B68002B02DC2C4B01221A602B4B1B68B8
:10139C00002B0BDD294B1B68013B284A1360274BA4
:1013AC001B68002B02DC264B01221A60254B1B68A4
:1013BC00002B0BDD234B1B68013B224A1360214B96
:1013CC001B68002B02DC204B01221A601F4B1B6890
:1013DC00002B0BDD1D4B1B68013B1C4A13601B4B88
:1013EC001B68002B02DC1A4B01221A60194B1B687C
:1013FC00002B0BDD174B1B68013B164A1360154B7A
:10140C001B68002B02DC144B01221A60134B1B6867
:10141C00002B0BDD114B1B68013B104A13600F4B6B
:10142C001B68002B02DC0E4B01221A6000BFBD466C
:10143C0080BC7047780000207400002080000020E1
:10144C007C000020880000208400002090000020F8
:10145C008C0000209800002094000020A0000020A8
:10146C009C00002080B485B000AF154B9B69144ADA
:10147C0043F001039361124B9B6903F00103BB60C2
:10148C00BB680F4BDB690E4A43F08053D3610C4BA6
:10149C00DB6903F080537B607B680A4B5B68FB6005
:1014AC00FB6823F0E063FB60FB6843F08063FB6048
:1014BC00044AFB68536000BF1437BD4680BC7047BC
:1014CC00001002400000014080B584B000AF78608D
:1014DC007B681B68B3F1804F13D10C4BDB690B4A53
:1014EC0043F00103D361094BDB6903F00103FB609B
:1014FC00FB68002200211C2000F0A1F91C2000F048
:10150C00BAF900BF1037BD4680BD00BF00100240C5
:10151C0080B400AFFEE780B400AFFEE780B400AF4C
:10152C00FEE780B400AFFEE780B400AFFEE780B406
:10153C0000AF00BFBD4680BC704780B400AF00BF99
:10154C00BD4680BC704780B400AF00BFBD4680BCB8
:10155C00704780B500AF00F07FF800BF80BD000081
:10156C0080B500AF024800F0C3FF00BF80BD00BFD4
:10157C00BC00002080B400AF00BFBD4680BC7047EB
:10158C00FFF7F8FF0B480C490C4A002302E0D45833
:10159C00C4500433C4188C42F9D3094A094C0023B3
:1015AC0001E013600432A242FBD301F0E1FAFEF732
:1015BC0001FF70470000002028000020182C0008B4
:1015CC002800002008010020FEE7000080B500AFD5
:1015DC00084B1B68074A43F010031360032000F00C
:1015EC0023F90F2000F008F8FFF73CFF0023184602
:1015FC0080BD00BF0020024080B582B000AF786093
:10160C00124B1A68124B1B7819464FF47A73B3FBC2
:10161C00F1F3B2FBF3F3184600F03BF90346002B51
:10162C0001D001230EE07B680F2B0AD800227968C9
:10163C004FF0FF3000F003F9064A7B68136000237B
:10164C0000E0012318460837BD4680BD1C00002071
:10165C00240000202000002080B400AF054B1B7834
:10166C001A46054B1B681344034A136000BFBD4662
:10167C0080BC7047240000200401002080B400AF1F
:10168C00024B1B681846BD4680BC70470401002005
:10169C0080B485B000AF78607B6803F00703FB6013
:1016AC000C4BDB68BB60BA684FF6FF031340BB60A2
:1016BC00FB681A02BB68134343F0BF6343F4003367
:1016CC00BB60044ABB68D36000BF1437BD4680BC06
:1016DC00704700BF00ED00E080B400AF044BDB6846
:1016EC001B0A03F007031846BD4680BC704700BFB9
:1016FC0000ED00E080B483B000AF0346FB7197F9B6
:10170C000730002B0BDBFB7903F01F02064997F91E
:10171C0007305B09012000FA02F241F8232000BFD8
:10172C000C37BD4680BC704700E100E080B483B04C
:10173C0000AF03463960FB7197F90730002B0ADBC9
:10174C003B68DAB20C4997F907301201D2B20B445C
:10175C0083F800230AE03B68DAB20849FB7903F00E
:10176C000F03043B1201D2B20B441A7600BF0C37A4
:10177C00BD4680BC704700BF00E100E000ED00E01A
:10178C0080B489B000AFF860B9607A60FB6803F090
:10179C000703FB61FB69C3F10703042B28BF042378
:1017AC00BB61FB690433062B02D9FB69033B00E0E8
:1017BC0000237B614FF0FF32BB6902FA03F3DA437B
:1017CC00BB681A407B699A404FF0FF317B6901FA84
:1017DC0003F3D9437B680B40134318462437BD46AB
:1017EC0080BC704780B582B000AF78607B68013BED
:1017FC00B3F1807F01D301230FE00A4A7B68013BE0
:10180C0053600F214FF0FF30FFF790FF054B002284
:10181C009A60044B07221A60002318460837BD460D
:10182C0080BD00BF10E000E080B582B000AF7860F2
:10183C007868FFF72DFF00BF0837BD4680BD80B527
:10184C0086B000AF0346B9607A60FB7300237B61FE
:10185C00FFF742FF78617A68B9687869FFF790FF03
:10186C00024697F90F3011461846FFF75FFF00BF8D
:10187C001837BD4680BD80B582B000AF0346FB7102
:10188C0097F907301846FFF735FF00BF0837BD46FC
:10189C0080BD80B582B000AF78607868FFF7A2FF9A
:1018AC00034618460837BD4680BD000080B48BB097
:1018BC0000AF7860396000237B6200233B6248E113
:1018CC0001227B6A02FA03F3FB613B681B68FA692D
:1018DC001340BB61BA69FB699A4240F037813B689F
:1018EC005B68A34A93425ED0A14A934275D8A14A41
:1018FC00934258D09F4A93426FD89F4A934252D0FA
:10190C009D4A934269D89D4A93424CD09B4A93423C
:10191C0063D89B4A934246D0994A93425DD8122B86
:10192C002AD8122B59D801A252F823F0B319000867
:10193C008D1900089F190008E1190008E719000823
:10194C00E7190008E7190008E7190008E71900086B
:10195C00E7190008E7190008E7190008E71900085B
:10196C00E7190008E7190008E7190008E71900084B
:10197C0095190008A9190008824A934213D02CE04B
:10198C003B68DB683B6229E03B68DB6804333B6205
:10199C0024E03B68DB6808333B621FE03B68DB6894
:1019AC000C333B621AE03B689B68002B02D104238A
:1019BC003B6213E03B689B68012B05D108233B621B
:1019CC007B68FA691A6109E008233B627B68FA6953
:1019DC005A6103E000233B6200E000BFBB69FF2BB0
:1019EC0001D87B6801E07B6804337B61BB69FF2B0A
:1019FC0002D87B6A9B0002E07B6A083B9B003B6140
:101A0C007B691A680F213B6901FA03F3DB431A4027
:101A1C00396A3B6901FA03F31A437B691A603B6824
:101A2C005B6803F08053002B00F09080564B9B6951
:101A3C00554A43F001039361534B9B6903F0010337
:101A4C00BB60BB68514A7B6A9B08023352F8233057
:101A5C00FB607B6A03F003039B000F2202FA03F383
:101A6C00DB43FA681340FB607B68494A93420DD014
:101A7C007B68484A934207D07B68474A934201D11E
:101A8C00022304E0032302E0012300E000237A6A2E
:101A9C0002F0030292009340FA681343FB603B4947
:101AAC007B6A9B080233FA6841F823203B685B6829
:101ABC0003F48013002B06D0384B9A683749BB6966
:101ACC0013438B6006E0354B9A68BB69DB433349A3
:101ADC0013408B603B685B6803F40013002B06D04B
:101AEC002E4BDA682D49BB691343CB6006E02B4BB8
:101AFC00DA68BB69DB4329491340CB603B685B6800
:101B0C0003F40033002B06D0244B5A682349BB69DD
:101B1C0013434B6006E0214B5A68BB69DB431F49FA
:101B2C0013404B603B685B6803F48033002B06D09A
:101B3C001A4B1A681949BB6913430B6006E0174B23
:101B4C001A68BB69DB43154913400B607B6A013390
:101B5C007B623B681A687B6A22FA03F3002B7FF4E2
:101B6C00AFAE00BF00BF2C37BD4680BC704700BF76
:101B7C000000321000003110000022100000211073
:101B8C000000121000001110001002400000014073
:101B9C0000080140000C014000100140000401400D
:101BAC0080B485B000AF78600B467B807B689A6808
:101BBC007B881340002B02D00123FB7301E0002330
:101BCC00FB73FB7B18461437BD4680BC704780B452
:101BDC0083B000AF78600B467B8013467B707B78BC
:101BEC00002B03D07A887B681A6103E07B881A0487
:101BFC007B681A6100BF0C37BD4680BC7047000083
:101C0C0080B586B000AF78607B68002B01D10123D2
:101C1C006CE27B681B6803F00103002B00F08780EB
:101C2C00924B5B6803F00C03042B0CD08F4B5B685E
:101C3C0003F00C03082B12D18C4B5B6803F480333C
:101C4C00B3F5803F0BD1894B1B6803F40033002B99
:101C5C006CD07B685B68002B68D1012346E27B6803
:101C6C005B68B3F5803F06D1804B1B687F4A43F419
:101C7C00803313602EE07B685B68002B0CD17B4BB0
:101C8C001B687A4A23F480331360784B1B68774ABD
:101C9C0023F4802313601DE07B685B68B3F5A02FF1
:101CAC000CD1724B1B68714A43F4802313606F4B49
:101CBC001B686E4A43F4803313600BE06B4B1B685C
:101CCC006A4A23F480331360684B1B68674A23F419
:101CDC00802313607B685B68002B13D0FFF7CEFC6E
:101CEC00386108E0FFF7CAFC02463B69D31A642B43
:101CFC0001D90323FAE15D4B1B6803F40033002B7D
:101D0C00F0D014E0FFF7BAFC386108E0FFF7B6FC3E
:101D1C0002463B69D31A642B01D90323E6E1534BEA
:101D2C001B6803F40033002BF0D100E000BF7B688C
:101D3C001B6803F00203002B63D04C4B5B6803F071
:101D4C000C03002B0BD0494B5B6803F00C03082BE6
:101D5C001CD1464B5B6803F48033002B16D1434BEC
:101D6C001B6803F00203002B05D07B681B69012B59
:101D7C0001D00123BAE13D4B1B6823F0F8027B68CC
:101D8C005B69DB00394913430B603AE07B681B69E4
:101D9C00002B20D0364B01221A60FFF76FFC386104
:101DAC0008E0FFF76BFC02463B69D31A022B01D902
:101DBC0003239BE12D4B1B6803F00203002BF0D097
:101DCC002A4B1B6823F0F8027B685B69DB00274910
:101DDC0013430B6015E0264B00221A60FFF74EFCF4
:101DEC00386108E0FFF74AFC02463B69D31A022B24
:101DFC0001D903237AE11D4B1B6803F00203002B6E
:101E0C00F0D17B681B6803F00803002B3AD07B6889
:101E1C009B69002B19D0174B01221A60FFF72EFC7F
:101E2C00386108E0FFF72AFC02463B69D31A022B03
:101E3C0001D903235AE10D4B5B6A03F00203002B1B
:101E4C00F0D0012000F09AFA1CE00A4B00221A6034
:101E5C00FFF714FC38610FE0FFF710FC02463B69FA
:101E6C00D31A022B08D9032340E100BF0010024013
:101E7C0000004242800442429E4B5B6A03F0020324
:101E8C00002BE9D17B681B6803F00403002B00F0E6
:101E9C00A6800023FB75974BDB6903F08053002B66
:101EAC000DD1944BDB69934A43F08053D361914B32
:101EBC00DB6903F08053BB60BB680123FB758E4B61
:101ECC001B6803F48073002B18D18B4B1B688A4A58
:101EDC0043F480731360FFF7D1FB386108E0FFF720
:101EEC00CDFB02463B69D31A642B01D90323FDE0D9
:101EFC00814B1B6803F48073002BF0D07B68DB688C
:101F0C00012B06D17B4B1B6A7A4A43F00103136207
:101F1C002DE07B68DB68002B0CD1764B1B6A754A75
:101F2C0023F001031362734B1B6A724A23F0040300
:101F3C0013621CE07B68DB68052B0CD16D4B1B6AB4
:101F4C006C4A43F0040313626A4B1B6A694A43F000
:101F5C00010313620BE0674B1B6A664A23F0010313
:101F6C001362644B1B6A634A23F0040313627B689D
:101F7C00DB68002B15D0FFF781FB38610AE0FFF717
:101F8C007DFB02463B69D31A41F28832934201D958
:101F9C000323ABE0574B1B6A03F00203002BEED07C
:101FAC0014E0FFF76BFB38610AE0FFF767FB0246B2
:101FBC003B69D31A41F28832934201D9032395E04D
:101FCC004C4B1B6A03F00203002BEED1FB7D012B63
:101FDC0005D1484BDB69474A23F08053D3617B68BA
:101FEC00DB69002B00F08180424B5B6803F00C0333
:101FFC00082B61D07B68DB69022B46D13F4B00225A
:10200C001A60FFF73BFB386108E0FFF737FB02462D
:10201C003B69D31A022B01D9032367E0354B1B68AC
:10202C0003F00073002BF0D17B681B6AB3F5803F83
:10203C0008D1304B5B6823F400327B689B682D49D8
:10204C0013434B602B4B5B6823F474127B68196A47
:10205C007B685B6A0B43274913434B60274B012278
:10206C001A60FFF70BFB386108E0FFF707FB02462D
:10207C003B69D31A022B01D9032337E01D4B1B6894
:10208C0003F00073002BF0D02FE01C4B00221A60E1
:10209C00FFF7F4FA386108E0FFF7F0FA02463B6903
:1020AC00D31A022B01D9032320E0124B1B6803F037
:1020BC000073002BF0D118E07B68DB69012B01D198
:1020CC00012313E00B4B5B68FB60FB6803F480326D
:1020DC007B681B6A9A4206D1FB6803F470127B681A
:1020EC005B6A9A4201D0012300E00023184618379E
:1020FC00BD4680BD001002400070004060004242AE
:10210C0080B584B000AF786039607B68002B01D15A
:10211C000123D0E06A4B1B6803F007033A689A422C
:10212C0010D9674B1B6823F0070265493B681343C2
:10213C000B60634B1B6803F007033A689A4201D0AB
:10214C000123B8E07B681B6803F00203002B20D04E
:10215C007B681B6803F00403002B05D0594B5B68AC
:10216C00584A43F4E06353607B681B6803F0080330
:10217C00002B05D0534B5B68524A43F460535360B9
:10218C00504B5B6823F0F0027B689B684D4913430E
:10219C004B607B681B6803F00103002B40D07B680D
:1021AC005B68012B07D1474B1B6803F40033002BF2
:1021BC0015D101237FE07B685B68022B07D1414B73
:1021CC001B6803F00073002B09D1012373E03D4B16
:1021DC001B6803F00203002B01D101236BE0394B88
:1021EC005B6823F003027B685B68364913434B60E2
:1021FC00FFF744FAF8600AE0FFF740FA0246FB6882
:10220C00D31A41F28832934201D9032353E02D4B68
:10221C005B6803F00C027B685B689B009A42EBD115
:10222C00274B1B6803F007033A689A4210D2244BE1
:10223C001B6823F0070222493B6813430B60204BB9
:10224C001B6803F007033A689A4201D0012332E07D
:10225C007B681B6803F00403002B08D0194B5B68E8
:10226C0023F4E0627B68DB68164913434B607B68A0
:10227C001B6803F00803002B09D0124B5B6823F496
:10228C0060527B681B69DB000E4913434B6000F006
:10229C0021F802460B4B5B681B0903F00F030A493C
:1022AC00CB5C22FA03F3094A1360094B1B681846EE
:1022BC00FFF7A2F9002318461037BD4680BD00BFBA
:1022CC000020024000100240EC2B00081C000020F3
:1022DC002000002080B487B000AF0023FB600023F7
:1022EC00BB6000237B6100237B6000233B611E4BA2
:1022FC005B68FB60FB6803F00C03042B02D0082B1B
:10230C0003D027E0194B3B6127E0FB689B0C03F0E3
:10231C000F03174AD35C7B60FB6803F48033002BFC
:10232C0010D0114B5B685B0C03F00103114AD35CBA
:10233C00BB607B680D4A02FB03F2BB68B2FBF3F394
:10234C007B6104E07B680C4A02FB03F37B617B69D5
:10235C003B6102E0054B3B6100BF3B6918461C37F3
:10236C00BD4680BC704700BF0010024000127A00CE
:10237C00FC2B00080C2C000800093D0080B485B033
:10238C0000AF78600A4B1B680A4AA2FB03235B0A66
:10239C007A6802FB03F3FB6000BFFB685A1EFA600D
:1023AC00002BF9D100BF00BF1437BD4680BC70476D
:1023BC001C000020D34D621080B582B000AF786055
:1023CC007B68002B01D1012341E07B6893F83D3001
:1023DC00DBB2002B06D17B68002283F83C207868A6
:1023EC00FFF772F87B68022283F83D207B681A683D
:1023FC007B6804331946104600F056FA7B680122BC
:10240C0083F846207B68012283F83E207B680122FA
:10241C0083F83F207B68012283F840207B680122EF
:10242C0083F841207B68012283F842207B680122DB
:10243C0083F843207B68012283F844207B680122C7
:10244C0083F845207B68012283F83D200023184641
:10245C000837BD4680BD000080B485B000AF786001
:10246C007B6893F83D30DBB2012B01D0012335E0C2
:10247C007B68022283F83D207B681B68DA687B68E6
:10248C001B6842F00102DA607B681B68164A9342B3
:10249C0009D07B681B68B3F1804F04D07B681B6844
:1024AC00124A934211D17B681B689B6803F00703A7
:1024BC00FB60FB68062B10D07B681B681A687B6876
:1024CC001B6842F001021A6007E07B681B681A68FF
:1024DC007B681B6842F001021A600023184614370F
:1024EC00BD4680BC704700BF002C0140000400407A
:1024FC0080B584B000AF78607B681B68DB68FB60DC
:10250C007B681B681B69BB60BB6803F00203002B74
:10251C0020D0FB6803F00203002B1BD07B681B68E8
:10252C006FF002021A617B6801221A777B681B68C4
:10253C009B6903F00303002B03D0786800F098F933
:10254C0005E0786800F08BF9786800F09AF97B6800
:10255C0000221A77BB6803F00403002B20D0FB6821
:10256C0003F00403002B1BD07B681B686FF0040284
:10257C001A617B6802221A777B681B689B6903F4DB
:10258C004073002B03D0786800F072F905E078688E
:10259C0000F065F9786800F074F97B6800221A770E
:1025AC00BB6803F00803002B20D0FB6803F0080382
:1025BC00002B1BD07B681B686FF008021A617B68CC
:1025CC0004221A777B681B68DB6903F00303002B7A
:1025DC0003D0786800F04CF905E0786800F03FF91A
:1025EC00786800F04EF97B6800221A77BB6803F01C
:1025FC001003002B20D0FB6803F01003002B1BD022
:10260C007B681B686FF010021A617B6808221A77CE
:10261C007B681B68DB6903F44073002B03D078687C
:10262C0000F026F905E0786800F019F9786800F0F8
:10263C0028F97B6800221A77BB6803F00103002B92
:10264C000CD0FB6803F00103002B07D07B681B68E0
:10265C006FF001021A617868FEF72AF8BB6803F084
:10266C008003002B0CD0FB6803F08003002B07D0F9
:10267C007B681B686FF080021A61786800F06FFA53
:10268C00BB6803F04003002B0CD0FB6803F0400345
:10269C00002B07D07B681B686FF040021A617868CA
:1026AC0000F0F8F8BB6803F02003002B0CD0FB689B
:1026BC0003F02003002B07D07B681B686FF020020F
:1026CC001A61786800F042FA00BF1037BD4680BD31
:1026DC0080B584B000AF786039600023FB737B68F1
:1026EC0093F83C30012B01D10223B4E07B6801222A
:1026FC0083F83C207B68022283F83D207B681B68B2
:10270C009B68BB60BB6823F07703BB60BB6823F49A
:10271C007F43BB607B681B68BA689A603B681B6828
:10272C00B3F5005F3ED0B3F5005F00F28780B3F5E0
:10273C00805F00F08680B3F5805F7FD8702B1AD055
:10274C00702B7BD8602B50D0602B77D8502B3CD083
:10275C00502B73D8402B58D0402B6FD8302B64D0D3
:10276C00302B6BD8202B60D0202B67D8002B5CD063
:10277C00102B5AD062E07B6818683B6899683B68FC
:10278C005A683B68DB6800F06AF97B681B689B68D9
:10279C00BB60BB6843F07703BB607B681B68BA689F
:1027AC009A604FE07B6818683B6899683B685A6888
:1027BC003B68DB6800F053F97B681B689A687B68A0
:1027CC001B6842F480429A603CE07B6818683B6866
:1027DC0059683B68DB681A4600F0CAF87B681B68CE
:1027EC005021184600F021F92CE07B6818683B68F2
:1027FC0059683B68DB681A4600F0E8F87B681B6890
:10280C006021184600F011F91CE07B6818683B68E1
:10281C0059683B68DB681A4600F0AAF87B681B68AD
:10282C004021184600F001F90CE07B681A683B68FF
:10283C001B681946104600F0F8F803E00123FB73FF
:10284C0000E000BF7B68012283F83D207B680022FA
:10285C0083F83C20FB7B18461037BD4680BD80B406
:10286C0083B000AF786000BF0C37BD4680BC7047AA
:10287C0080B483B000AF786000BF0C37BD4680BC1D
:10288C00704780B483B000AF786000BF0C37BD4692
:10289C0080BC704780B483B000AF786000BF0C3749
:1028AC00BD4680BC7047000080B485B000AF786036
:1028BC0039607B681B68FB607B682B4A934207D0AE
:1028CC007B68B3F1804F03D07B68284A934208D1D0
:1028DC00FB6823F07003FB603B685B68FA6813438A
:1028EC00FB607B68204A934207D07B68B3F1804F32
:1028FC0003D07B681D4A934208D1FB6823F44073D4
:10290C00FB603B68DB68FA681343FB60FB6823F0F1
:10291C0080023B685B691343FB607B68FA681A6052
:10292C003B689A687B68DA623B681A687B689A62D3
:10293C007B680D4A934203D13B681A697B681A6322
:10294C007B6801225A617B681B6903F00103002B31
:10295C0005D07B681B6923F001027B681A6100BFFC
:10296C001437BD4680BC7047002C01400004004069
:10297C0080B487B000AFF860B9607A60FB681B6AFE
:10298C007B61FB681B6A23F00102FB681A62FB681F
:10299C009B693B613B6923F0F0033B617B681B0146
:1029AC003A6913433B617B6923F00A037B617A69C3
:1029BC00BB6813437B61FB683A699A61FB687A696F
:1029CC001A6200BF1C37BD4680BC704780B487B00C
:1029DC0000AFF860B9607A60FB681B6A7B61FB68CA
:1029EC001B6A23F01002FB681A62FB689B693B614F
:1029FC003B6923F470433B617B681B033A691343C7
:102A0C003B617B6923F0A0037B61BB681B017A6986
:102A1C0013437B61FB683A699A61FB687A691A62B5
:102A2C0000BF1C37BD4680BC704780B485B000AF7A
:102A3C00786039607B689B68FB60FB6823F07003EF
:102A4C00FB603A68FB68134343F00703FB607B6849
:102A5C00FA689A6000BF1437BD4680BC704780B4DA
:102A6C0087B000AFF860B9607A603B60FB689B6828
:102A7C007B617B6923F47F437B613B681A027B6833
:102A8C001A43BB6813437A6913437B61FB687A6909
:102A9C009A6000BF1C37BD4680BC704780B485B0BF
:102AAC0000AF786039607B6893F83C30012B01D122
:102ABC00022341E07B68012283F83C207B680222E0
:102ACC0083F83D207B681B685B68FB607B681B6838
:102ADC009B68BB60FB6823F07003FB603B681B6862
:102AEC00FA681343FB607B681B68FA685A607B6862
:102AFC001B68144A934209D07B681B68B3F1804F62
:102B0C0004D07B681B68104A93420CD1BB6823F03D
:102B1C008003BB603B685B68BA681343BB607B682F
:102B2C001B68BA689A607B68012283F83D207B6839
:102B3C00002283F83C20002318461437BD4680BC85
:102B4C00704700BF002C01400004004080B483B0EB
:102B5C0000AF786000BF0C37BD4680BC704780B4B6
:102B6C0083B000AF786000BF0C37BD4680BC7047A7
:102B7C0070B500260C4D0D4C641BA410A64209D157
:102B8C0000F022F800260A4D0A4C641BA410A64241
:102B9C0005D170BD55F8043B98470136EEE755F862
:102BAC00043B98470136F2E7102C0008102C000863
:102BBC00102C0008142C000803460244934200D148
:102BCC00704703F8011BF9E7F8B500BFF8BC08BC67
:102BDC009E467047F8B500BFF8BC08BC9E467047CF
:102BEC0000000000000000000102030406070809B1
:102BFC0002030405060708090A0B0C0D0E0F101032
:042C0C0001020000C1
:042C10003101000886
:042C14000D010008A6
:102C18000101010101010101020000008813000007
:102C2800D0070000B80B00000A00000000127A006C
:082C3800100000000100000083
:040000050800158D4D
:00000001FF
